:0200000460009A
:10000000464346420004015600000000000303007E
:1000100000001000000000000000000000000000D0
:1000200000000000000000000000000000000000D0
:1000300000000000000000000000000000000000C0
:1000400000000000010407000000000000000000A4
:100050000000800000000000000000000000000020
:100060000000000000000000000000000000000090
:100070000000000000000000100010000000000060
:100080006B0418080832042600000000000000007D
:10009000050404240000000000000000000000002F
:1000A0000104042000000000000000000000000027
:1000B0000604000000000000000000000000000036
:1000C000AB04183004240000000000000000000011
:1000D000D704180800000000000000000000000025
:1000E0000000000000000000000000000000000010
:1000F0000000000000000000000000000000000000
:100100005204180800000000000000000000000079
:100110000204180804200000000000000000000095
:1001200000000000000000000000000000000000CF
:10013000C7040000000000000000000000000000F4
:1001400000000000000000000000000000000000AF
:10015000000000000000000000000000000000009F
:10016000000000000000000000000000000000008F
:10017000000000000000000000000000000000007F
:10018000000000000000000000000000000000006F
:10019000000000000000000000000000000000005F
:1001A000000000000000000000000000000000004F
:1001B000000000000000000000000000000000003F
:1001C000000100000010000001000000000000001D
:1001D000000000000000000000000000000000001F
:1001E000000000000000000000000000000000000F
:1001F00000000000000000000000000000000000FF
:0200000460009A
:10100000D10020410020006000000000301000608E
:1010100020100060001000600000000000000000D0
:10102000000000600000800000000000FFFFFFFFE4
:10103000D2043041CC03AC04400FC068FFFFFFFF77
:10104000400FC06CFFFFFFFF400FC070FFFFFFFFAE
:10105000400FC074FFFFFFFF400FC078FFFFFFFF8E
:10106000400FC07CFFFFFFFF400FC080FFFFFFFF6E
:10107000400D803000002001400D8100001B000069
:10108000400FC01400010D40401F801400000000FC
:10109000401F801800000000401F801C000000005E
:1010A000401F802000000000401F8024000000003E
:1010B000401F802800000000401F802C000000001E
:1010C000401F803000000000401F803400000000FE
:1010D000401F803800000000401F803C00000000DE
:1010E000401F804000000000401F804400000000BE
:1010F000401F804800000000401F804C000000009E
:10110000401F805000000000401F8054000000007D
:10111000401F805800000000401F805C000000005D
:10112000401F806000000000401F8064000000003D
:10113000401F806800000000401F806C000000001D
:10114000401F807000000000401F807400000000FD
:10115000401F807800000000401F807C00000000DD
:10116000401F808000000000401F808400000000BD
:10117000401F808800000000401F808C000000009D
:10118000401F809000000000401F8094000000007D
:10119000401F809800000000401F809C000000005D
:1011A000401F80A000000000401F80A4000000003D
:1011B000401F80A800000000401F80AC000000001D
:1011C000401F80B000000010401F80B400000000ED
:1011D000401F80B800000000401F8204000110F989
:1011E000401F8208000110F9401F820C000110F915
:1011F000401F8210000110F9401F8214000110F9F5
:10120000401F8218000110F9401F821C000110F9D4
:10121000401F8220000110F9401F8224000110F9B4
:10122000401F8228000110F9401F822C000110F994
:10123000401F8230000110F9401F8234000110F974
:10124000401F8238000110F9401F823C000110F954
:10125000401F8240000110F9401F8244000110F934
:10126000401F8248000110F9401F824C000110F914
:10127000401F8250000110F9401F8254000110F9F4
:10128000401F8258000110F9401F825C000110F9D4
:10129000401F8260000110F9401F8264000110F9B4
:1012A000401F8268000110F9401F826C000110F994
:1012B000401F8270000110F9401F8274000110F974
:1012C000401F8278000110F9401F827C000110F954
:1012D000401F8280000110F9401F8284000110F934
:1012E000401F8288000110F9401F828C000110F914
:1012F000401F8290000110F9401F8294000110F9F4
:10130000401F8298000110F9401F829C000110F9D3
:10131000401F82A0000110F9401F82A4000110F9B3
:10132000401F82A8000110F9402F000010000004A7
:10133000402F000800030524402F000C060305245D
:10134000402F00108000001B402F00148200001B63
:10135000402F00188400001B402F001C8600001B3B
:10136000402F002090000021402F0024A0000019F1
:10137000402F0028A8000017402F002CA900001BB8
:10138000402F003000000021402F0004000079A809
:10139000402F004000000F31402F004400652922FB
:1013A000402F004800010920402F004C50210A081E
:1013B000402F008000000021402F00840088888892
:1013C000402F009400000002402F00980000000011
:1013D000402F009080000000402F009CA55A000F75
:1013E000CF000C1C402F003C00000001CC00140476
:1013F000402F009080000000402F009CA55A000C58
:10140000CF000C1C402F003C00000001CC00140455
:10141000402F009080000000402F009CA55A000C37
:10142000CF000C1C402F003C00000001CC001C042D
:10143000402F00A000000033402F009080000000EB
:10144000402F009CA55A000ACF000C1C402F003CE6
:1014500000000001CC000C04402F004C50210A0970
:0200000460009A
:102000000000022029240060412400604324006075
:10201000452400604724006049240060000000005F
:102020000000000000000000000000004B240060E1
:102030004D240060000000004F240060154900603E
:1020400053240060572400605B2400605F2400601C
:1020500063240060672400606B2400606F240060CC
:1020600073240060772400607B2400607F2400607C
:1020700083240060872400608B2400608F2400602C
:10208000932400600F2500600F2500600F2500607D
:10209000972400609B2400609F240060A3240060BC
:1020A000A7240060AB240060AF240060B32400606C
:1020B000B7240060BB240060BF240060C32400601C
:1020C000C7240060CB240060CF240060D3240060CC
:1020D000D7240060DB2400600F2500600F2500601E
:1020E0000F2500600F2500600F2500600F250060A0
:1020F0000F2500600F2500600F2500600F25006090
:102100000F2500600F2500600F2500600F2500607F
:102110000F2500600F2500600F2500600F2500606F
:10212000DF240060E3240060E7240060EB2400600B
:10213000EF2400600F2500600F2500600F25006070
:102140000F2500600F2500600F2500600F2500603F
:102150000F2500600F2500600F2500600F2500602F
:102160000F2500600F2500600F2500600F2500601F
:102170000F2500600F2500600F2500600F2500600F
:102180000F2500600F2500600F2500600F250060FF
:102190000F2500600F2500600F2500600F250060EF
:1021A0000F2500600F250060F3240060F724006015
:1021B0000F2500600F2500600F2500600F250060CF
:1021C0000F2500600F2500600F2500600F250060BF
:1021D0000F2500600F2500600F2500600F250060AF
:1021E0000F2500600F2500600F2500600F2500609F
:1021F000FB2400600F250060FF24006003250060C1
:102200000F2500600F250060072500600B2500608A
:102210000F2500600F2500600F2500600F2500606E
:102220000F2500600F2500600F2500600F2500605E
:102230000F2500600F2500600F2500600F2500604E
:102240000F2500600F2500600F2500600F2500603E
:102250000F2500600F2500600F2500600F2500602E
:102260000F2500600F2500600F2500600F2500601E
:102270000F2500600F2500600F2500600F2500600E
:102280000F2500600F2500600F2500600F250060FE
:102290000F2500600F2500600F2500600F250060EE
:1022A0000F2500600F2500600F2500600F250060DE
:1022B0000F2500600F2500600F2500600F250060CE
:1022C0000F2500600F2500600F2500600F250060BE
:1022D0000F2500600F2500600F2500600F250060AE
:1022E0000F2500600F2500600F2500600F2500609E
:1022F0000F2500600F2500600F2500600F2500608E
:102300000F2500600F2500600F2500600F2500607D
:102310000F2500600F2500600F2500600F2500606D
:102320000F2500600F2500600F2500600F2500605D
:102330000F2500600F2500600F2500600F2500604D
:102340000F2500600F2500600F2500600F2500603D
:102350000F2500600F2500600F2500600F2500602D
:102360000F2500600F2500600F2500600F2500601D
:102370000F2500600F2500600F2500600F2500600D
:102380000F2500600F2500600F2500600F250060FD
:102390000F2500600F2500600F2500600F250060ED
:1023A0000F2500600F2500600F2500600F250060DD
:1023B0000F2500600F2500600F2500600F250060CD
:1023C0000F2500600F2500600F2500600F250060BD
:1023D0000F2500600F2500600F2500600F250060AD
:1023E0000F2500600F2500600F2500600F2500609D
:1023F0000F2500600F2500600F250060FFFFFFFF25
:10240000DFF80CD000F06AF900480047114D006079
:102410000000022002480068854602480068004724
:10242000002008600420086072B63A483A4901600A
:102430000A6882F308883948804762B638480047FE
:10244000FEE7FEE7FEE7FEE7FEE7FEE7FEE7FEE764
:10245000FEE73448004734480047344800473448D2
:102460000047344800473448004734480047344860
:102470000047344800473448004734480047344850
:102480000047344800473448004734480047344840
:102490000047344800473448004734480047344830
:1024A0000047344800473448004734480047344820
:1024B0000047344800473448004734480047344810
:1024C0000047344800473448004734480047344800
:1024D00000473448004734480047344800473448F0
:1024E00000473448004734480047344800473448E0
:1024F00000473448004734480047344800473448D0
:1025000000473448004734480047344800473448BF
:102510000047000008ED00E0002000602549006051
:10252000012400600F2500600F2500600F2500606A
:102530000F2500600F2500600F2500600F2500604B
:102540000F2500600F2500600F2500600F2500603B
:102550000F2500600F2500600F2500600F2500602B
:102560000F2500600F250060D53C0060F13C006045
:102570000D3D0060293D0060453D0060613D00600B
:102580007D3D0060993D00600F2500600F250060D3
:102590000F2500600F2500600F2500600F250060EB
:1025A0000F2500600F2500600F2500600F250060DB
:1025B0000F2500600F2500600F2500600F250060CB
:1025C0000F2500600F2500600F250060E1360060D8
:1025D0000F2500600F2500600F2500600F250060AB
:1025E0000F2500602DE9F05F0546002092469B46CE
:1025F00088460646814640241BE028464146474619
:10260000224600F05AF853465A46C01A914110D358
:1026100011461846224600F041F82D1A67EB0108D2
:102620004F4622460120002100F038F817EB000940
:102630004E41201EA4F10104DFDC484631462A4603
:102640004346BDE8F09F40EA01039B0703D009E041
:1026500008C9121F08C0042AFAD203E011F8013B8E
:1026600000F8013B521EF9D27047D2B201E000F8E7
:10267000012B491EFBD270470022F6E710B5134626
:102680000A4604461946FFF7F0FF204610BD421CDB
:1026900010F8011B0029FBD1801A7047202A04DBA7
:1026A000203A00FA02F1002070479140C2F1200365
:1026B00020FA03F3194390407047202A04DB203AA4
:1026C00021FA02F00021704721FA02F3D040C2F152
:1026D000200291400843194670470000064C074D00
:1026E00006E0E06840F0010394E8070098471034E2
:1026F000AC42F6D3FFF788FE7C5100609C5100602D
:1027000010B54FF400409449086000BF93489449C5
:10271000086000BF0121934800F068FE0121924843
:1027200000F064FE9148C06820F01F0040F01200E5
:102730008E49C86000BF8D48006800F00040B0F1CD
:10274000004FF8D18A4800F097FD8A4800F0C0FD9C
:102750008948006F40F40050874908678648A030D8
:10276000006840F40050C1F8A0000846D0F8E0002E
:1027700040F40050C1F8E0000846D0F8E00040F412
:102780000010C1F8E00000217C4800F0CDFD0021E0
:10279000744800F02BFE0021734800F027FE002152
:1027A000774800F0C1FD0321764800F0BDFD01210E
:1027B000754800F0B9FD0321744800F017FE0121AF
:1027C000734800F0B1FD0021724800F00FFE0121B6
:1027D000714800F0A9FD0021704800F007FE0121BA
:1027E0006F4800F0A1FD00216E4800F0FFFD0721B9
:1027F0004FF2140000F098FD00216648F83000F018
:10280000F5FD00216348083800F0F0FD0121624821
:10281000183000F089FD0021634800F0E7FD042135
:102820005648FC3800F080FD0221604800F0DEFDD3
:1028300002215F4800F078FD02215E4800F0D6FDDD
:1028400003215D4800F070FD012151480C3000F07B
:102850006BFD00215448E03000F0C8FD03215648CC
:10286000001D00F061FD01214948103000F05CFDC1
:1028700000213C48001D00F0B9FD03214F4800F045
:1028800053FD01214E4800F04FFD00214948001D35
:1028900000F0ACFD00214B4800F046FD00214A4805
:1028A00000F0A4FD0121494800F03EFD0221354819
:1028B0000C3000F09BFD00213548083000F034FD5D
:1028C00000213448083000F091FD0121404800F01B
:1028D0002BFD03213948F03000F026FD052130485A
:1028E000EC3800F083FD01213A4800F01DFD07217E
:1028F0003248083000F018FD0321374800F076FD1B
:1029000001213348083800F00FFD0721334800F05B
:102910000BFD03211B48E43800F068FD01212F481E
:10292000083800F001FD07212A48083800F0FCFCB7
:1029300003212B4800F05AFD00212A4800F056FDE3
:102940000D48D0F8600120F01F0027490860274893
:102950002749086010BD00003C00002000366E01D1
:1029600038000020186C0080143900140000084062
:10297000A0500060A850006000800D4014FB008053
:1029800014EA00041468008010E00040187200800F
:102990001CE007801C26008024EB00801C30008097
:1029A00024F000801C3100803C69008018640080A5
:1029B00024790080186E008028E6008028F60080C8
:1029C00028F0078038F307803832008020E2078043
:1029D00038EC008030F900803074008030E90080ED
:1029E000207300800C20008060810D400046C323CE
:1029F0004800002010B56148006800F40030B0F5D0
:102A0000003F2BD100BF00BF00BF00BF00BFBFF31E
:102A10004F8F00BF00BF00BF00BF00BF00BFBFF3AC
:102A20006F8F00BF00BF00BF5448006820F4003023
:102A30005249086000205249086000BF00BF00BF33
:102A4000BFF34F8F00BF00BF00BF00BF00BF00BF7C
:102A5000BFF36F8F00BF00BF00BF00BF47480068D3
:102A600000F48030B0F5803F01D101F0ADFC00BF33
:102A700000BF00BF00BF00BFBFF34F8F00BF00BF4C
:102A800000BF00BF00BF00BFBFF36F8F00BF00BF1C
:102A900000BF3A481030006820F4803037491031C8
:102AA000086036488030006820F0010033498031EA
:102AB000086000BF33483149883108603248091D39
:102AC00008603248091F08602F48801C091D0860F3
:102AD0002F48091F08602F48091D08601320091F8F
:102AE00008602948801C091D08601420091F08601F
:102AF00028481838091D08602748091F086025481C
:102B00001838091D08602548091F08602148163833
:102B1000091D08601D48801D091F08601D480838F0
:102B2000091D08601E48091F08601E48091D08602D
:102B3000042000BF00BF00BF00BFBFF34F8F00BF26
:102B400000BF00BF00BF00BF00BFBFF36F8F00BF5B
:102B500000BF00BF40F00101084A80321160074900
:102B60001031096841F48031044A1032116000BF0D
:102B700001F07AFC01F014FD10BD000014ED00E03E
:102B800050EF00E0100000C0390010031100008079
:102B900012000060390003031500002016002020F9
:102BA0001800E0812900080370B51648C1B2164A22
:102BB0008958C0F34C32C0F304239A401140C0F34B
:102BC0000422D14061B9114800F040FA0621B0FB5F
:102BD000F1F50F4800F01AFA401CB5FBF0F40FE0D5
:102BE00000BF0C48006800F0100008B10A4D01E079
:102BF0000A480568064800F009FA401CB5FBF0F4E5
:102C0000204670BD2426008000C00F400D0010003B
:102C100024E0078070820D4000366E0138000020ED
:102C20001CB540F2024000F0E9F901205B490023A5
:102C30005A4ACC32CDE900100146594800F04AFF0B
:102C400001205649091D00231A46CDE9001001460E
:102C50005348001D00F03EFF012050490831002379
:102C60004E4AF032CDE9001001464D48083000F0E0
:102C700031FF012049490C310023484AD032CDE9C7
:102C80000010014646480C3000F024FF0120434963
:102C900010310023414AD432CDE9001001464048AA
:102CA000103000F017FF01203C49143100233B4A4B
:102CB000D832CDE9001001463948143000F00AFF3F
:102CC0000120364918310023344ADC32CDE90010A6
:102CD00001463348183000F0FDFE41F2F1002F4963
:102CE00000232E4ACC32CDE9001001212C4800F0FF
:102CF000EBFE41F2F1002949091D00231A46CDE9F6
:102D0000001001212648001D00F0DEFE41F2F10016
:102D1000224908310023214AF032CDE90010012177
:102D20001F48083000F0D0FE41F2F1001B490C3181
:102D300000231A4AD032CDE90010012118480C3086
:102D400000F0C2FE41F2F100144910310023134A91
:102D5000D432CDE9001001211148103000F0B4FE4A
:102D600041F2F1000D49143100230C4AD832CDE96B
:102D7000001001210A48143000F0A6FE41F2F100D3
:102D8000064918310023054ADC32CDE90010012143
:102D90000348183000F098FE1CBD0000D8831F4087
:102DA000E8811F4010B5FFF7FFFE044623460222CC
:102DB0004FF4E131014800F0CFFB10BD0040184056
:102DC0001CB540F2024000F019F9002023490346E7
:102DD0000246CDE900100521214800F07BFE0020CD
:102DE0001E491C3903460246CDE9001002211C4849
:102DF0001C3800F06FFE00201849183903460246BF
:102E0000CDE9001002211648183800F063FE41F2A7
:102E1000B000124900231A46CDE9001005211048E0
:102E200000F052FE41F2B0000C491C3900231A4652
:102E3000CDE9001002210A481C3800F045FE41F29D
:102E4000B0000649183900231A46CDE900100221C6
:102E50000348183800F038FE1CBD0000F8821F40FF
:102E600008811F402DE9F04104460E46270A04F070
:102E70001F08062F00D805E040F2D73208A117A09E
:102E800001F0B8FD184800EB87052868032101FA16
:102E900008F1884306FA08F108432860BDE8F0818C
:102EA0002E2E2F2E2E2F2E2E2F2E2E2F2E2E2F2E3D
:102EB0002E2F646576696365732F4D494D585254C2
:102EC000313035322F647269766572732F66736C98
:102ED0005F636C6F636B2E6800000000696E646551
:102EE00078203C3D2036000068C00F402DE9F041BD
:102EF00004460E46270A04F01F08062F00D805E0F6
:102F000040F2D73208A117A001F074FD184800EB79
:102F100087052868032101FA08F1884306FA08F1B9
:102F200008432860BDE8F0812E2E2F2E2E2F2E2E46
:102F30002F2E2E2F2E2E2F2E2E2F64657669636551
:102F4000732F4D494D585254313035322F647269C8
:102F5000766572732F66736C5F636C6F636B2E683C
:102F600000000000696E646578203C3D203600005A
:102F700068C00F402DE9F04104460E46270A04F0D0
:102F80001F08062F00D805E040F2D73208A117A08D
:102F900001F030FD184800EB87052868032101FA8D
:102FA00008F1884306FA08F108432860BDE8F0817B
:102FB0002E2E2F2E2E2F2E2E2F2E2E2F2E2E2F2E2C
:102FC0002E2F646576696365732F4D494D585254B1
:102FD000313035322F647269766572732F66736C87
:102FE0005F636C6F636B2E6800000000696E646540
:102FF00078203C3D2036000068C00F4010B50446E4
:1030000003212046FFF72EFF10BD00000146C8B285
:10301000054A8058C1F34C32C1F304239A40104052
:10302000C1F30422D040704700C00F40044800683C
:1030300000F0100008B10348704703480068FBE740
:1030400070820D4000366E01380000202DE9FF47E8
:103050008146834BD3E90020D3E9021301AC0BC4B2
:10306000009280494846C0F30B428A5800F01F077F
:103070000123BB401A400AB1012200E000221AB924
:10308000002004B0BDE8F087764FC846C8F30B4077
:103090003858C0F3813010B9FFF7C8FF00E00020B6
:1030A00004467048C9F30B414158C1F3004109B1CE
:1030B0002046E6E76C49A9EB0100894545D00DDCC7
:1030C000B9F10D0F16D0A9F580100D3890B3B0F5F9
:1030D000801F70D0B0F5001F6ED112E0B0F5401F18
:1030E0006DD0B0F5E00F69D0A0F5E00008380028F9
:1030F000F2D1A3E05B48006800F07F006043440821
:10310000AAE05848D0F860C0006DA4FB0071624688
:1031100000233846FFF766FA05465248006B00F078
:10312000010010B11620444302E004EB8400840047
:103130002C4491E0FFE74B48006900F0020008B121
:10314000162000E01420444386E04648006F00F05B
:103150007F0A44489030D0F800C04248D0F8800040
:10316000A4FB00700146624600233846FFF73AFA96
:10317000054604FB0A543B48006F00F4C01018B128
:10318000B0F5002F04D101E0A40802E0640800E0DB
:1031900000BF00BF3548006835490840B0F5004F12
:1031A00004D04942084418B9A40802E0640800E0C9
:1031B00000BF00BF50E043E04CE000E036E02948AB
:1031C000A030006800F07F0A2648D0F8C0C0B030B8
:1031D0000068A4FB00700146624600233846FFF7F2
:1031E00001FA054604FB0A541E48D0F8A00000F47A
:1031F000C01018B1B0F5002F04D101E0A40802E01E
:10320000640800E000BF00BF1848006800F04040BC
:10321000B0F1404F03D0B0F1804F04D101E0A408D9
:1032200002E0640800E000BF00BF15E00F489038DE
:10323000006800F0030A5DF82A400DE00D4C0BE039
:103240000848006A00F0020008B1162000E01420CF
:10325000444301E0002400BF00BF204611E7000006
:10326000BC50006000800D400D00700070810D406A
:103270000080800040787D011449096821F44041B4
:1032800041F4803102794FF4404303EA8232114322
:103290000E4A11601146096841F27F02914341F4E0
:1032A0000051027802F07F021143084A116000BF0A
:1032B0000649096801F000410029F9D0034909686D
:1032C00021F48031014A11607047000000800D40F8
:1032D0001449096B21F4404141F48031027B4FF4E1
:1032E000404303EA823211430E4A11631146096BCF
:1032F00041F20102914341F40051027802F00102CF
:103300001143084A116300BF0649096B01F00041EF
:103310000029F9D00349096B21F48031014A116376
:103320007047000000800D4070B504460E463F20F7
:1033300000EA9465E0B215494158C4F34C30C4F337
:103340000422904021EA0000C4F3042206FA02F1AC
:10335000C4F34C32C4F304239A4011400843E1B251
:103360000A4A8850202D00D805E040F2B53208A165
:1033700016A001F03FFB202D07D000BF0348806C52
:103380000121A94008400028F8D170BD00C00F40BD
:103390002E2E2F2E2E2F2E2E2F2E2E2F2E2E2F2E48
:1033A0002E2F646576696365732F4D494D585254CD
:1033B000313035322F647269766572732F66736CA3
:1033C0005F636C6F636B2E68000000006275737939
:1033D0005368696674203C3D2043434D5F4E4F5F08
:1033E000425553595F5741495400000070B5044697
:1033F0000E463F2000EA9465E0B215494158C4F3F7
:103400004C30C4F30422904021EA0000C4F30422AB
:1034100006FA02F1C4F34C32C4F304239A4011407B
:103420000843E1B20A4A8850202D00D805E04FF445
:10343000647208A116A001F0DDFA202D07D000BFAC
:103440000348806C0121A94008400028F8D170BDD4
:1034500000C00F402E2E2F2E2E2F2E2E2F2E2E2F31
:103460002E2E2F2E2E2F646576696365732F4D499E
:103470004D585254313035322F647269766572730B
:103480002F66736C5F636C6F636B2E6800000000C7
:10349000627573795368696674203C3D2043434DDF
:1034A0005F4E4F5F425553595F57414954000000EA
:1034B0002DE9F04F07468C46914600203946834659
:1034C00001F801BBB9F1000F1ED0DCF8004034B99F
:1034D0004FF0300B81F800B0401CBDE8F08F10E0D9
:1034E00094FBF3F808FB1345002D05DA2A466FEA32
:1034F000020B0BF1310500E03035444601F8015B69
:10350000401C002CECD125E0DCF800602EB94FF017
:10351000300B81F800B0401CDFE719E0B6FBF3FA8E
:103520000AFB13620A2A01D230320DE0A2F10A0B23
:10353000DDF824E0BEF1000F02D04FF0410E01E0B3
:103540004FF0610E0BEB0E02564601F8012B401CAA
:10355000002EE3D100BFC0E72DE9F04106460D463D
:1035600014461F4604B104E06922064906A001F092
:1035700041FA3B462A462146304600F051FBBDE861
:10358000F081000038510060646576696365202130
:103590003D2044454255475F434F4E534F4C455F96
:1035A0004445564943455F545950455F4E4F4E453B
:1035B000000000000FB430B5A1B000240025802128
:1035C0006846FFF759F825A82090094B6A462099CC
:1035D000249801F087F804462146684600F044FB31
:1035E000054600202090284621B030BC5DF814FB31
:1035F000F53500602DE9F04105460C4616461F469C
:103600004FF0000800BF10E02068401C802805D360
:103610002846216800F028FB0020206020682E54F6
:103620002068401C206008F10108B845ECDBBDE8CB
:10363000F081000070B505460C46002640F60A00F1
:103640000440002C28D004F4006010B141F6593633
:1036500011E004F0080010B141F65A360BE004F016
:10366000020010B141F65B3604E0E1220BA11AA082
:1036700001F0C0F900BF00BF68692043686100BF66
:10368000D5F8BC0040F00100C5F8BC00D5F8B80082
:1036900040F00100C5F8B800304670BD2E2E5C2EFB
:1036A0002E5C2E2E5C2E2E5C2E2E5C2E2E5C6465E7
:1036B00076696365735C4D494D58525431303532EB
:1036C0005C647269766572735C66736C5F666C6568
:1036D000787370692E63000066616C73650000008A
:1036E00010B503480168034800F03CF810BD000025
:1036F0004400002000802A4070B504460D4605B104
:1037000005E04FF4377206A114A001F073F940F6FA
:103710006B0021698143216100BF0020286070BDDA
:103720002E2E5C2E2E5C2E2E5C2E2E5C2E2E5C2ED3
:103730002E5C646576696365735C4D494D585254DF
:10374000313035325C647269766572735C66736CB5
:103750005F666C65787370692E63000068616E64E3
:103760006C6500002DE9F04705460C4600266869A7
:10377000C7B239462846FFF75DFF8246BAF1000F0F
:103780000FD0206968B121462846FFF7B5FF2069B0
:1037900028B1524621462846D4E904C3E047BDE893
:1037A000F08707F0200000283BD02068022838D19D
:1037B000D5F8B800C0F3830000F101094FEAC90150
:1037C000A068884215D3002609E005F5807050F8FE
:1037D00026106268101D60601160701CC6B24FEA4E
:1037E0004900B042F1DC0821A06801FB1900A0608B
:1037F00013E0002609E005F5807050F82610626895
:10380000101D60601160701CC6B20121A06801EB40
:103810009000B042EFD80020A060686940F020001E
:10382000686107F0010078B1686940F001006861E3
:1038300021462846FFF760FF206928B10022214673
:103840002846D4E904C3E04707F04000E8B3206805
:1038500001283AD1A068C0B3D5F8BC00C0F38300FA
:1038600000F101084FEAC801A068884215D300267C
:1038700009E06168081D6060096805F5C07040F8DE
:103880002610701CC6B24FEA4800B042F1DC082195
:10389000A06801FB1800A06013E0002609E0616841
:1038A000081D6060096805F5C07040F82610701C9E
:1038B000C6B20121A06801EB9000B042EFD8002011
:1038C000A060686940F04000686100BF67E70000E1
:1038D00070B50546002406E0094850F82400A842C7
:1038E00000D102E0641C062CF6D300BF062C00D2E7
:1038F00004E0542203A111A001F07CF8204670BD21
:10390000145100602E2E2F2E2E2F2E2E2F2E2E2FC6
:103910002E2E2F2E2E2F646576696365732F4D49E9
:103920004D585254313035322F6472697665727356
:103930002F66736C5F6770696F2E6300696E7374B6
:10394000616E6365203C2041525241595F53495A90
:103950004528735F6770696F426173657329000062
:103960002DE9F04104460D4616462046FFF7B0FF0C
:10397000134931F9107003213846FFF7FBFA00BFF5
:1039800061690120A84081436161307828B961688C
:103990000120A8408143616009E0727829462046F1
:1039A00000F056F861680120A84001436160B778D3
:1039B0003A462946204600F005F800BFBDE8F081F0
:1039C0002C510060F0B503460C462146DD69012606
:1039D000A640B543DD61102C02D203F10C0002E0D9
:1039E00003F110001039062A2ED2DFE802F02D0371
:1039F0000A15202705684F000326BE40B543056021
:103A000023E005684F000326BE40B5434F00012662
:103A1000BE403543056018E005684F000326BE40F0
:103A2000B5434F000226BE40354305600DE00568F2
:103A30004F000326BE403543056006E0DD690126E0
:103A4000A6403543DD6100E000BF00BFF0BD0000CF
:103A500070B504460D461646202D00D204E07422AF
:103A600008A116A000F0C6FF2EB920680121A940C8
:103A70008843206004E021680120A84001432160C0
:103A800070BD00002E2E2F2E2E2F2E2E2F2E2E2FDD
:103A90002E2E2F2E2E2F646576696365732F4D4968
:103AA0004D585254313035322F64726976657273D5
:103AB0002F66736C5F6770696F2E630070696E208C
:103AC0003C2033320000000030B5DDE9034504B18D
:103AD000256030BDF0B5DDE9055401F0070610277B
:103AE00007EA04173E43066002B11360F0BD000010
:103AF000F0B585B004460D4616461F4604B104E0F5
:103B0000FF221CA12AA000F075FF20792B49087123
:103B10002068086008460079022826D1684600F02F
:103B200075F90095254932460868694600F002FAA1
:103B3000224A0121106821B1826942F40022826187
:103B400003E0826922F40022826100BF1B4A012146
:103B5000106821B1826942F48022826103E08269A7
:103B600022F48022826100BF00E000BF00BF05B0E8
:103B7000F0BD00002E2E2F2E2E2F2E2E2F2E2E2F6C
:103B80002E2E2F2E2E2F646576696365732F4D4977
:103B90004D585254313035322F7574696C697469DF
:103BA00065732F696F2F66736C5F696F2E630000FA
:103BB0004E554C4C20213D20696F00004C000020E8
:103BC0002DE9F04104460D46164600270C480079C1
:103BD00002280FD136B10A492A460868214600F06A
:103BE000B5FB06E006492A460868214600F026FB98
:103BF000074601E0012700BF00BF3846BDE8F0815D
:103C00004C0000202DE9F04104460D4624F01F062B
:103C10002819871B3946304600F03EFDBDE8F0818B
:103C20002DE9FC4107460C4615461E4600978DF8C7
:103C300004400023324629466846FFF759FF00201A
:103C4000BDE8FC8170B505460C4600264CB145B177
:103C5000012636B1012221462846FFF7B1FF00B107
:103C60000024204670BD000070B504460D4604B126
:103C700005E040F23F1204A113A000F0BBFE29466C
:103C80002046FFF7DFFF70BD2E2E2F2E2E2F2E2E5B
:103C90002F2E2E2F2E2E2F2E2E2F646576696365E4
:103CA000732F4D494D585254313035322F75746948
:103CB0006C69746965732F6C6F672F66736C5F6CCA
:103CC0006F672E630000000062756620213D204E64
:103CD000554C4C0010B5034841680348034A12682C
:103CE000904710BD540300200040184040000020C1
:103CF00010B5034881680348034A1268904710BD15
:103D000054030020008018404000002010B50348F4
:103D1000C1680348034A1268904710BD540300204D
:103D200000C018404000002010B503480169034856
:103D3000034A1268904710BD540300200000194048
:103D40004000002010B5034841690348034A126847
:103D5000904710BD5403002000401940400000204F
:103D600010B5034881690348034A1268904710BDA3
:103D700054030020008019404000002010B5034883
:103D8000C1690348034A1268904710BD54030020DC
:103D900000C019404000002010B50348016A0348E4
:103DA000034A1268904710BD5403002000001A40D7
:103DB0004000002070B505460C46AB6A23F4403342
:103DC0004FF4403000EA04400343AB626B6923F0D8
:103DD000004304F0004003430B480340C14304EA9E
:103DE0000100034323F4404304F4404003436B6168
:103DF000284600F097F8204010B140F21A5600E033
:103E00000026304670BD0000FFFFE0BF10B504463D
:103E100004B105E04FF4F1720BA11AA000F0EAFD25
:103E20004FF4E1302060002020716071A071E071DA
:103E300020726072A072E07260732073A073E073EE
:103E40002074607410BD00002E2E2F2E2E2F2E2ECB
:103E50002F2E2E2F2E2E2F2E2E2F64657669636522
:103E6000732F4D494D585254313035322F64726999
:103E7000766572732F66736C5F6C70756172742EE9
:103E800063000000636F6E666967000070B50546E9
:103E9000002406E0094850F82400A84200D102E0BE
:103EA000641C092CF6D300BF092C00D204E08E223A
:103EB00003A112A000F09EFD204670BDCC50006012
:103EC0002E2E2F2E2E2F2E2E2F2E2E2F2E2E2F2E0D
:103ED0002E2F646576696365732F4D494D58525492
:103EE000313035322F647269766572732F66736C68
:103EF0005F6C70756172742E63000000696E73747C
:103F0000616E6365203C2041525241595F53495ACA
:103F10004528735F6C7075617274426173657329B3
:103F200000000000014648698A6A02F4430240EA40
:103F3000124070472DE9F04F85B004460D4691467A
:103F400005B104E0E42284A192A000F053FD2868AA
:103F500000B104E0E52280A190A000F04BFD287A9A
:103F6000042800DC04E0E7227BA192A000F042FDDF
:103F7000687A042800DC04E0E82277A19DA000F024
:103F800039FD286802904FF0000A002004900427B1
:103F900031E028687843B9FBF0F01FFA80F8B8F1F7
:103FA000000F01D14FF0010807FB08F0B9FBF0F05A
:103FB000039029680398A0EB010B08F101007843F6
:103FC000B9FBF0F02968081A58450BD208F1010036
:103FD0007843B9FBF0F02968A1EB000B08F1010070
:103FE0001FFA80F80298834504D8CDF808B0BA4685
:103FF000CDF810807F1C202FCBD964212868B0FB1E
:10400000F1F000EB40010298814204D240F22150CD
:1040100005B0BDE8F08F2046FFF738FF01908549D5
:10402000019831F91000009003210098FEF75EFF1F
:1040300000BF00BFA06840F00200A060A06820F0B0
:104040000200A06000BF2669BAF1030F04D9BAF1DB
:10405000080F01D246F4003626F0F856AAF1010006
:104060004FF0F85101EA006006436FF30C06049824
:10407000C0F30C0030432061206920F00050206123
:10408000A06940F2177120EA01062879E97B4FF414
:10409000E06202EA01210843A97B042202EA8101CD
:1040A000084306436879012807D1287910B126F41E
:1040B000006606E046F4006603E0287908B146F0A1
:1040C0001006A661206920F40056E8794FF40051EB
:1040D00001EA403030432061287A697A40EA0140A1
:1040E000E062A06A40F08800A062A06A40F440400C
:1040F000A062514E46F0004646F44046687B1021CF
:1041000001EA0010297B202202EA41110843616A7A
:1041100008436062A87A18B1606A40F008006062E3
:10412000E87A18B1606A40F001006062A87910B1C5
:1041300046F0005601E026F00056606930436061A9
:10414000A669287C08B146F40026687C08B146F4CC
:104150008026A66100205BE72E2E2F2E2E2F2E2EDE
:104160002F2E2E2F2E2E2F2E2E2F6465766963650F
:10417000732F4D494D585254313035322F64726986
:10418000766572732F66736C5F6C70756172742ED6
:1041900063000000636F6E6669670000636F6E66A0
:1041A00069672D3E62617564526174655F42707328
:1041B0000000000046534C5F464541545552455F50
:1041C0004C50554152545F4649464F5F53495A45FA
:1041D0006E286261736529203E3D20636F6E6669BB
:1041E000672D3E74784669666F57617465726D61BC
:1041F000726B000046534C5F464541545552455F33
:104200004C50554152545F4649464F5F53495A45B9
:104210006E286261736529203E3D20636F6E66697A
:10422000672D3E72784669666F57617465726D617D
:10423000726B00000251006000001F402DE9F04742
:1042400006460C46904604B105E04FF42E722EA1AE
:104250003CA000F0CFFBB76907F4006028B907F075
:10426000100020B907F0020008B1012000E0002092
:10427000814642E030E03046FFF754FE054605F443
:10428000002040B14FF400213046FFF793FD40F28B
:104290001D50BDE8F08705F4802038B14FF480212F
:1042A0003046FFF787FD40F21E50F2E705F400307C
:1042B00038B14FF400313046FFF77CFD40F21F501B
:1042C000E7E705F4803038B14FF480313046FFF72E
:1042D00071FD4FF4A460DCE7F06AC0F302600028CF
:1042E000C9D0B9F1000F05D0F06900F07F0004F8E3
:1042F000010B02E0F06904F8010BB8F10000A8F12D
:104300000108B7D100BFC4E72E2E2F2E2E2F2E2E40
:104310002F2E2E2F2E2E2F2E2E2F6465766963655D
:10432000732F4D494D585254313035322F647269D4
:10433000766572732F66736C5F6C70756172742E24
:1043400063000000646174610000000070B5054600
:104350000C46164604B105E040F2A92209A118A0B6
:1043600000F048FB08E000BF686900F40000002886
:10437000FAD014F8010BE861301EA6F10106F2D163
:1043800070BD00002E2E2F2E2E2F2E2E2F2E2E2FD4
:104390002E2E2F2E2E2F646576696365732F4D495F
:1043A0004D585254313035322F64726976657273CC
:1043B0002F66736C5F6C70756172742E6300000001
:1043C000646174610000000010B50023244C236078
:1043D00000BF00BF00BFBFF34F8F00BF00BF00BFD3
:1043E0001F4B703B1B6823F480331D4C703C2360D3
:1043F00000BF00BF00BFBFF34F8F00BF00BF00BFB3
:10440000174B1B1F1868C0F34E3100BFC0F3C90221
:1044100000BF43F6E07303EA41134FF0404404EA5F
:10442000827423430F4C236000BF00BF131EA2F110
:104430000102EED10B1EA1F10101E7D100BF00BFC7
:1044400000BFBFF34F8F00BF00BF00BF00BF00BF62
:1044500000BFBFF36F8F00BF00BF00BF10BD0000E3
:1044600084ED00E074EF00E010B50023234C2360DE
:1044700000BF00BF00BFBFF34F8F00BF00BF00BF32
:10448000231F1868C0F34E3100BFC0F3C90200BF3C
:1044900043F6E07303EA41134FF0404404EA8274A8
:1044A0002343174C236000BF00BF131EA2F101027B
:1044B000EED10B1EA1F10101E7D100BF00BF00BF8B
:1044C000BFF34F8F00BF00BF00BF0C4B703B1B689A
:1044D00043F48033094C703C236000BF00BF00BF31
:1044E000BFF34F8F00BF00BF00BF00BF00BF00BFC2
:1044F000BFF36F8F00BF00BF00BF10BD84ED00E0B1
:1045000060EF00E010B50023234C236000BF00BF24
:1045100000BFBFF34F8F00BF00BF00BF231F18684D
:10452000C0F34E3100BFC0F3C90200BF43F6E073D1
:1045300003EA41134FF0404404EA82742343174CCA
:10454000236000BF00BF131EA2F10102EED10B1EBB
:10455000A1F10101E7D100BF00BF00BFBFF34F8F42
:1045600000BF00BF00BF0C4B703B1B6843F480339F
:10457000094C703C236000BF00BF00BFBFF34F8FEA
:1045800000BF00BF00BF00BF00BF00BFBFF36F8F01
:1045900000BF00BF00BF10BD84ED00E060EF00E091
:1045A00000BF00BF00BFBFF34F8F00BF00BF00BF01
:1045B00000BF00BF00BFBFF36F8F00BF00BF00BFD1
:1045C00000201449086000BF00BF00BFBFF34F8F39
:1045D00000BF00BF00BF00BF00BF00BFBFF36F8FB1
:1045E00000BF00BF00BF0C48006840F400300A491B
:1045F000086000BF00BF00BFBFF34F8F00BF00BF08
:1046000000BF00BF00BF00BFBFF36F8F00BF00BF80
:1046100000BF704750EF00E014ED00E000BF00BFA6
:1046200000BFBFF34F8F00BF00BF00BF00BF00BF80
:1046300000BFBFF36F8F00BF00BF00BF0020144951
:10464000086000BF00BF00BFBFF34F8F00BF00BFB7
:1046500000BF00BF00BF00BFBFF36F8F00BF00BF30
:1046600000BF0C48006840F400300A49086000BFF1
:1046700000BF00BFBFF34F8F00BF00BF00BF00BF30
:1046800000BF00BFBFF36F8F00BF00BF00BF704708
:1046900050EF00E014ED00E030B50A460446202358
:1046A00000BF00BF00BFBFF34F8F00BF00BF00BF00
:1046B00003E00B4D2C601C44D21A002AF9DC00BF29
:1046C00000BF00BFBFF34F8F00BF00BF00BF00BFE0
:1046D00000BF00BFBFF36F8F00BF00BF00BF30BD82
:1046E0005CEF00E02DE9FF4F91B01E464FF000094E
:1046F00000270020069003900190119D01E1252CD8
:1047000005D0E2B2012306A91398B047F8E00120D2
:1047100004904FF0000A0020079010E0681C054646
:104720000478302C08DB392C06DCA4F130000AEBCD
:104730008A0100EB410A02E06D1E012007900798F4
:104740000028EBD006200590681C054600782E282E
:104750001AD100200590079012E0681C05460478E5
:10476000302C0ADB392C08DCA4F13000059901EB70
:10477000810100EB4100059002E06D1E01200790D1
:1047800007980028E9D000E06D1E681C05460478F3
:10479000642C11D0692C0FD0662C0DD0462C0BD078
:1047A000782C09D0582C07D06F2C05D0622C03D060
:1047B000702C01D0752C70D1642C01D0692C11D1D2
:1047C0001298006802901298001D129004980A2313
:1047D000012202A9009008A8FEF76AFE074608A871
:1047E00000EB0709582C01D0782C15D1782C01D179
:1047F000002004901298006801901298001D1290F9
:1048000004981023002201A9009008A8FEF750FE8A
:10481000074608A800EB07096F2C05D0622C03D0CF
:10482000702C01D0752C22D112980068019012983A
:10483000001D12906F2C02D1082003900BE0622C17
:1048400002D10220039006E0702C02D110200390C8
:1048500001E00A20039004980090002201A908A812
:10486000039BFEF725FE074608A800EB0709AAEB05
:104870000703202206A91398B047B9F1000F3ED0D4
:1048800005E019F80129012306A91398B04799F802
:1048900000000028F5D132E0FFE7632C0BD112981D
:1048A00010F8041B01F0FF0B12905A46012306A9D1
:1048B0001398B04723E0732C1CD1129850F8048B46
:1048C0001290B8F1000F1AD04046FDF7E0FE0746FF
:1048D000AAEB0703202206A91398B04705E018F8B1
:1048E000012B012306A91398B04798F8000000286F
:1048F000F5D104E0E2B2012306A91398B04700BF46
:104900006D1C2878041E7FF4FAAE069815B0BDE839
:10491000F08F000002480068401C014908607047A1
:104920000400002010B52D48006840F470002B49A9
:1049300008602B48008920F0010029490881294896
:10494000008920F00100274908812548008800F0EF
:10495000040028B12248008820F004002049088083
:104960002048008800F0040028B11E48008820F08C
:1049700004001C4908801C481C4948604FF6FF7021
:1049800088600846006820F0800040F02000086041
:104990004FF0E020006900F0010038B14FF0E02056
:1049A000006920F001004FF0E02108610B487438E5
:1049B000006800F40030B0F5003F01D0FFF72EFE94
:1049C00006487438006800F48030B0F5803F01D0AC
:1049D000FFF798FD00F00CF810BD000088ED00E036
:1049E00000800B4000000D4020C528D900C00B40BE
:1049F0007047000004460D46164633462A462146B7
:104A000002A0FEF7D7FD00BF00BEFDE741535345AE
:104A10005254204552524F52202220257320223AD0
:104A20002066696C652022257322204C696E652002
:104A300022256422200A000002E008C8121F08C1D3
:104A4000002AFAD170477047002001E001C1121F0F
:104A5000002AFBD17047000008B5002000900090AC
:104A600003E000BF0098401C009002490098884273
:104A7000F7D308BD808D5B0010B50024074800788F
:104A800020B900F00FF8044604B110BD04480068D6
:104A900081690020884700BFF7E700003000002050
:104AA0002C00002010B54FF4007209490948FDF7A9
:104AB000CAFD09480068074942680020904704463B
:104AC0000CB1204610BD0120044908700020F9E710
:104AD00000000060540100202C0000203000002065
:104AE0002DE9F04104460D46164600270A48007895
:104AF00030B9FFF7D7FF074617B13846BDE8F08158
:104B00000648006833462A462146D0F820C00020D7
:104B1000E04707463846F1E7300000202C0000202F
:104B20002DE9F74F0F4691464C464448007830B97E
:104B3000FFF7B8FF064616B13046BDE8FE8F009875
:104B4000A0F1C045E8B268B305F0FF0A280A4FEAB1
:104B5000002BC8460AEB0800B0F5807F01D9CAF5E2
:104B600080784FF480720BF1C0413548FDF76BFD42
:104B7000334901EB0A0042463946FDF764FD3148EE
:104B800000682F4B5A46D0F808C02F480168002013
:104B9000E04706460EB13046CFE70BF58075A4EB33
:104BA0000804474428E007F0030088B14FF48072FE
:104BB00039462348FDF747FD22480068204B2A4626
:104BC000D0F808C0204801680020E04706460AE007
:104BD0001C4800683B462A46D0F808C01A480168BD
:104BE0000020E04706460EB13046A6E705F5807581
:104BF000A4F5807407F58077FF2CD4D8DCB1224669
:104C000039460F48FDF71FFDC4F5807205F1C0431A
:104C100019190B4B1819FDF716FD0A480068084BC7
:104C20002A46D0F808C0084801680020E047064638
:104C30000EB1304681E700207FE700003000002001
:104C4000540000202C0000203400002030B589B032
:104C500004460025242215496846FDF7F4FC144853
:104C6000007830B9FFF71EFF054615B1284609B098
:104C700030BD02220F480168C0310420FFF730FF29
:104C800005460020019003208DF8000004200290CA
:104C90000120039007940890074800686946C2699C
:104CA0000020904705462846E1E700007C50006060
:104CB00030000020340000202C0000202DE9F041BD
:104CC00004460D4600260F48007830B9FFF7EAFE8B
:104CD000064616B13046BDE8F081A4F1C048681E12
:104CE000012101EB10300703074800683B464246AC
:104CF000D0F810C0054801680020E047064630465D
:104D0000E9E70000300000202C00002034000020E3
:104D10001CB5554800680190544E0024002700251A
:104D2000FDF768FEFEF74CF8FDF7EAFCFEF73AF8EF
:104D3000FDF776FF4EA0FEF73DFC01AA1321534874
:104D4000FEF70EFE00F0D8F84FF480513046FEF723
:104D500059FF00BFD6F80E004D49884251D14DA0F1
:104D6000FEF728FC534F544DB068401E012101EB63
:104D700010300403FFF796FE002000906846FFF70E
:104D800065FF4EA00099FEF715FC21463846FFF757
:104D900095FF1FE0FFF770FE4FF480512846FEF7A5
:104DA00031FF4FF4805229464948FDF74CFC4FF43F
:104DB000805247493846FFF7B3FE07F5805705F59F
:104DC0008055A4F580544FF4002030498C310860A0
:104DD00000BF00BF002CDDDC222224493C48FDF747
:104DE00032FC22212148FFF769FF00203849C1F831
:104DF0000E0022221D48FFF793FE36A0FEF7DAFBD5
:104E000000BF2C480068B0F1004F12D92948006853
:104E1000B0F1024F0DD2274840682649884208D990
:104E2000084640682449884203D200F017F9FDF78C
:104E3000F1FA2CA0FEF7BEFB15E0FFF70DFE2D48A2
:104E4000007840B1002213211048FEF701FE002037
:104E50002849087007E0012213210C48FEF7F8FDED
:104E6000012024490870E8E778500060002068605D
:104E70000D0A4561737941524D2D5254313035320E
:104E800020426F6F742055702E0D0A0000801B4069
:104E900046555352436F7079204F54412054656DED
:104EA0007020526567696F6E20546F204170702EBC
:104EB0000D0A00000020086000203860466C617315
:104EC000682049443A3078253032782E0D0A0000A7
:104ED0007803002055706461746520456E642E0D62
:104EE0000A0D0A00417070205661696C642E0D0A2B
:104EF0000D0A00000000002010B50FA0FEF75AFBBD
:104F00000EA0FEF757FB16A0FEF754FB1DA0FEF700
:104F100051FB25A0FEF74EFB2CA0FEF74BFB34A067
:104F2000FEF748FB3BA0FEF745FB43A0FEF742FB24
:104F300001A0FEF73FFB10BD0D0A00002020205FFE
:104F40005F5F5F5F5F5F5F5F205F2020202020202A
:104F5000205F5F5F5F5F5F5F5F202852290D0A005F
:104F60002020285F5F5F5F5F5F2020207C207C2007
:104F7000202020202F205F5F5F5F5F5F5F29200D73
:104F80000A00000020202020202020202F20202F79
:104F90007C207C202020202F202F2020202020203B
:104FA00020200D0A00000000202020202020202F9B
:104FB00020202F207C207C2020202F202F2020200C
:104FC0002020202020200D0A00000000202020208A
:104FD00020202F20202F20207C207C2020282028EB
:104FE00020202020205F5F5F5F200D0A000000006E
:104FF00020202020202F20202F2020207C207C20DB
:1050000020205C205C202020285F2020207C0D0AAE
:1050100000000000202020202F20202F5F5F5F5FF6
:105020007C207C5F5F5F5F5C205C5F5F5F2F202F79
:10503000207C0D0A000000002020285F5F5F5F5F7A
:105040005F5F5F5F7C5F5F5F5F5F5F7C5C5F5F5F39
:105050005F5F2F7C5F7C0D0A0000000000204FF096
:10506000E021486188610861014802490860704791
:105070000020086008ED00E00100000000000000D2
:10508000000000000100000001000000000000001E
:105090000000000000000000000000000000000010
:1050A000640000000000000001000000000000009B
:1050B00001000000000000000000000040787D01B9
:1050C00080F0FA0200E1F505405973070000000086
:1050D000004018400080184000C0184000001940EF
:1050E000004019400080194000C0194000001A40DB
:1050F00080FF1400150016001700180019001A0090
:105100001B00FFFF18051C000C001801020306031A
:105110001A050E060000000000801B4000C01B4066
:1051200000001C4000401C4000000C40FFFF1A0122
:105130001E001A020C031E012E2E2F2E2E2F2E2E95
:105140002F2E2E2F2E2E2F2E2E2F6465766963651F
:10515000732F4D494D585254313035322F75746983
:105160006C69746965732F66736C5F6465627567DB
:105170005F636F6E736F6C652E6300009C510060FF
:105180000000002054000000384A0060F051006028
:105190005400002024130000484A00600000000072
:1051A0000000000000000000000E270700000000C3
:1051B00000200000000002000303000000000000C7
:1051C0000100000000000000B812200000000000F4
:1051D000540100200000000000000000000000005A
:1051E0000000000000A4781F000000000000000084
:040000056000240172
:00000001FF
